{
  "_format": "hh-sol-artifact-1",
  "contractName": "Tunes",
  "sourceName": "contracts/ethTunes.sol",
  "abi": [
    {
      "anonymous": false,
      "inputs": [
        {
          "indexed": true,
          "internalType": "address",
          "name": "owner",
          "type": "address"
        },
        {
          "indexed": true,
          "internalType": "uint256",
          "name": "songId",
          "type": "uint256"
        }
      ],
      "name": "fileStored",
      "type": "event"
    },
    {
      "anonymous": false,
      "inputs": [
        {
          "indexed": true,
          "internalType": "address",
          "name": "streamer",
          "type": "address"
        },
        {
          "indexed": true,
          "internalType": "address",
          "name": "songOwner",
          "type": "address"
        },
        {
          "indexed": false,
          "internalType": "uint256",
          "name": "cost",
          "type": "uint256"
        }
      ],
      "name": "paymentSuccess",
      "type": "event"
    },
    {
      "anonymous": false,
      "inputs": [
        {
          "indexed": true,
          "internalType": "uint256",
          "name": "songid",
          "type": "uint256"
        },
        {
          "indexed": false,
          "internalType": "string",
          "name": "message",
          "type": "string"
        }
      ],
      "name": "success",
      "type": "event"
    },
    {
      "inputs": [
        {
          "internalType": "uint256",
          "name": "_id",
          "type": "uint256"
        },
        {
          "internalType": "string",
          "name": "_ipfsHash",
          "type": "string"
        },
        {
          "internalType": "string",
          "name": "_songMeta",
          "type": "string"
        },
        {
          "internalType": "uint256",
          "name": "_cost",
          "type": "uint256"
        }
      ],
      "name": "addFile",
      "outputs": [
        {
          "internalType": "bool",
          "name": "",
          "type": "bool"
        }
      ],
      "stateMutability": "nonpayable",
      "type": "function"
    },
    {
      "inputs": [
        {
          "internalType": "uint256",
          "name": "_id",
          "type": "uint256"
        }
      ],
      "name": "donate",
      "outputs": [],
      "stateMutability": "payable",
      "type": "function"
    },
    {
      "inputs": [
        {
          "internalType": "uint256",
          "name": "_id",
          "type": "uint256"
        }
      ],
      "name": "getHash",
      "outputs": [
        {
          "internalType": "string",
          "name": "",
          "type": "string"
        }
      ],
      "stateMutability": "view",
      "type": "function"
    },
    {
      "inputs": [
        {
          "internalType": "uint256",
          "name": "_id",
          "type": "uint256"
        }
      ],
      "name": "getLikes",
      "outputs": [
        {
          "internalType": "uint256",
          "name": "",
          "type": "uint256"
        }
      ],
      "stateMutability": "view",
      "type": "function"
    },
    {
      "inputs": [],
      "name": "getSongs",
      "outputs": [
        {
          "components": [
            {
              "internalType": "uint256",
              "name": "songId",
              "type": "uint256"
            },
            {
              "internalType": "string",
              "name": "ipfsHash",
              "type": "string"
            },
            {
              "internalType": "string",
              "name": "songMeta",
              "type": "string"
            },
            {
              "internalType": "address",
              "name": "owner",
              "type": "address"
            },
            {
              "internalType": "uint256",
              "name": "cost",
              "type": "uint256"
            },
            {
              "internalType": "bool",
              "name": "isStored",
              "type": "bool"
            }
          ],
          "internalType": "struct Tunes.addSong[]",
          "name": "",
          "type": "tuple[]"
        }
      ],
      "stateMutability": "view",
      "type": "function"
    },
    {
      "inputs": [],
      "name": "getTotalSongs",
      "outputs": [
        {
          "internalType": "uint256",
          "name": "",
          "type": "uint256"
        }
      ],
      "stateMutability": "view",
      "type": "function"
    },
    {
      "inputs": [
        {
          "internalType": "uint256",
          "name": "_id",
          "type": "uint256"
        }
      ],
      "name": "likeSong",
      "outputs": [],
      "stateMutability": "nonpayable",
      "type": "function"
    }
  ],
  "bytecode": "0x608060405234801561001057600080fd5b506112d2806100206000396000f3fe6080604052600436106100705760003560e01c80636d6b0c2c1161004e5780636d6b0c2c146101065780638c9db2b414610143578063a209081e1461016e578063f14faf6f146101ab57610070565b80633c279b4e146100755780635565f6601461009e5780636b2fafa9146100c9575b600080fd5b34801561008157600080fd5b5061009c600480360381019061009791906108b6565b6101c7565b005b3480156100aa57600080fd5b506100b361022a565b6040516100c09190610b30565b60405180910390f35b3480156100d557600080fd5b506100f060048036038101906100eb91906108b6565b610492565b6040516100fd9190610b9c565b60405180910390f35b34801561011257600080fd5b5061012d60048036038101906101289190610cf3565b610539565b60405161013a9190610da1565b60405180910390f35b34801561014f57600080fd5b5061015861070d565b6040516101659190610dcb565b60405180910390f35b34801561017a57600080fd5b50610195600480360381019061019091906108b6565b610717565b6040516101a29190610dcb565b60405180910390f35b6101c560048036038101906101c091906108b6565b610734565b005b600180600083815260200190815260200160002060008282546101ea9190610e15565b92505081905550807fe3be1b03907ebbc2967d9e6b9665a9e08c63dfda2f91a06be92c00f25a2622ba60405161021f90610e95565b60405180910390a250565b6060600060035467ffffffffffffffff81111561024a57610249610bc8565b5b60405190808252806020026020018201604052801561028357816020015b61027061081e565b8152602001906001900390816102685790505b50905060005b60035481101561048a576000808281526020019081526020016000206040518060c0016040529081600082015481526020016001820180546102ca90610ee4565b80601f01602080910402602001604051908101604052809291908181526020018280546102f690610ee4565b80156103435780601f1061031857610100808354040283529160200191610343565b820191906000526020600020905b81548152906001019060200180831161032657829003601f168201915b5050505050815260200160028201805461035c90610ee4565b80601f016020809104026020016040519081016040528092919081815260200182805461038890610ee4565b80156103d55780601f106103aa576101008083540402835291602001916103d5565b820191906000526020600020905b8154815290600101906020018083116103b857829003601f168201915b505050505081526020016003820160009054906101000a900473ffffffffffffffffffffffffffffffffffffffff1673ffffffffffffffffffffffffffffffffffffffff1673ffffffffffffffffffffffffffffffffffffffff168152602001600482015481526020016005820160009054906101000a900460ff16151515158152505082828151811061046c5761046b610f15565b5b6020026020010181905250808061048290610f44565b915050610289565b508091505090565b606060008083815260200190815260200160002060010180546104b490610ee4565b80601f01602080910402602001604051908101604052809291908181526020018280546104e090610ee4565b801561052d5780601f106105025761010080835404028352916020019161052d565b820191906000526020600020905b81548152906001019060200180831161051057829003601f168201915b50505050509050919050565b600080151560008087815260200190815260200160002060050160009054906101000a900460ff161515146105a3576040517f08c379a000000000000000000000000000000000000000000000000000000000815260040161059a90610ffe565b60405180910390fd5b6040518060c001604052808681526020018581526020018481526020013373ffffffffffffffffffffffffffffffffffffffff1681526020018381526020016001151581525060008087815260200190815260200160002060008201518160000155602082015181600101908161061a91906111ca565b50604082015181600201908161063091906111ca565b5060608201518160030160006101000a81548173ffffffffffffffffffffffffffffffffffffffff021916908373ffffffffffffffffffffffffffffffffffffffff1602179055506080820151816004015560a08201518160050160006101000a81548160ff021916908315150217905550905050600360008154809291906106b890610f44565b9190505550843373ffffffffffffffffffffffffffffffffffffffff167fa03f9e52693a5ffe104dff8166331bdea52a6b73a256a4da8f57f3c8723f56d760405160405180910390a360019050949350505050565b6000600354905090565b600060016000838152602001908152602001600020549050919050565b600080600083815260200190815260200160002060030160009054906101000a900473ffffffffffffffffffffffffffffffffffffffff1690508073ffffffffffffffffffffffffffffffffffffffff166108fc349081150290604051600060405180830381858888f193505050501580156107b4573d6000803e3d6000fd5b508073ffffffffffffffffffffffffffffffffffffffff163373ffffffffffffffffffffffffffffffffffffffff167f3be2e59aec97d7da6f3d41752d7a9c8c5dff5f7686ac07f6ddc203295999e23d346040516108129190610dcb565b60405180910390a35050565b6040518060c00160405280600081526020016060815260200160608152602001600073ffffffffffffffffffffffffffffffffffffffff168152602001600081526020016000151581525090565b6000604051905090565b600080fd5b600080fd5b6000819050919050565b61089381610880565b811461089e57600080fd5b50565b6000813590506108b08161088a565b92915050565b6000602082840312156108cc576108cb610876565b5b60006108da848285016108a1565b91505092915050565b600081519050919050565b600082825260208201905092915050565b6000819050602082019050919050565b61091881610880565b82525050565b600081519050919050565b600082825260208201905092915050565b60005b8381101561095857808201518184015260208101905061093d565b60008484015250505050565b6000601f19601f8301169050919050565b60006109808261091e565b61098a8185610929565b935061099a81856020860161093a565b6109a381610964565b840191505092915050565b600073ffffffffffffffffffffffffffffffffffffffff82169050919050565b60006109d9826109ae565b9050919050565b6109e9816109ce565b82525050565b60008115159050919050565b610a04816109ef565b82525050565b600060c083016000830151610a22600086018261090f565b5060208301518482036020860152610a3a8282610975565b91505060408301518482036040860152610a548282610975565b9150506060830151610a6960608601826109e0565b506080830151610a7c608086018261090f565b5060a0830151610a8f60a08601826109fb565b508091505092915050565b6000610aa68383610a0a565b905092915050565b6000602082019050919050565b6000610ac6826108e3565b610ad081856108ee565b935083602082028501610ae2856108ff565b8060005b85811015610b1e5784840389528151610aff8582610a9a565b9450610b0a83610aae565b925060208a01995050600181019050610ae6565b50829750879550505050505092915050565b60006020820190508181036000830152610b4a8184610abb565b905092915050565b600082825260208201905092915050565b6000610b6e8261091e565b610b788185610b52565b9350610b8881856020860161093a565b610b9181610964565b840191505092915050565b60006020820190508181036000830152610bb68184610b63565b905092915050565b600080fd5b600080fd5b7f4e487b7100000000000000000000000000000000000000000000000000000000600052604160045260246000fd5b610c0082610964565b810181811067ffffffffffffffff82111715610c1f57610c1e610bc8565b5b80604052505050565b6000610c3261086c565b9050610c3e8282610bf7565b919050565b600067ffffffffffffffff821115610c5e57610c5d610bc8565b5b610c6782610964565b9050602081019050919050565b82818337600083830152505050565b6000610c96610c9184610c43565b610c28565b905082815260208101848484011115610cb257610cb1610bc3565b5b610cbd848285610c74565b509392505050565b600082601f830112610cda57610cd9610bbe565b5b8135610cea848260208601610c83565b91505092915050565b60008060008060808587031215610d0d57610d0c610876565b5b6000610d1b878288016108a1565b945050602085013567ffffffffffffffff811115610d3c57610d3b61087b565b5b610d4887828801610cc5565b935050604085013567ffffffffffffffff811115610d6957610d6861087b565b5b610d7587828801610cc5565b9250506060610d86878288016108a1565b91505092959194509250565b610d9b816109ef565b82525050565b6000602082019050610db66000830184610d92565b92915050565b610dc581610880565b82525050565b6000602082019050610de06000830184610dbc565b92915050565b7f4e487b7100000000000000000000000000000000000000000000000000000000600052601160045260246000fd5b6000610e2082610880565b9150610e2b83610880565b9250828201905080821115610e4357610e42610de6565b5b92915050565b7f55706461746564206c696b657320666f722074686520736f6e67210000000000600082015250565b6000610e7f601b83610b52565b9150610e8a82610e49565b602082019050919050565b60006020820190508181036000830152610eae81610e72565b9050919050565b7f4e487b7100000000000000000000000000000000000000000000000000000000600052602260045260246000fd5b60006002820490506001821680610efc57607f821691505b602082108103610f0f57610f0e610eb5565b5b50919050565b7f4e487b7100000000000000000000000000000000000000000000000000000000600052603260045260246000fd5b6000610f4f82610880565b91507fffffffffffffffffffffffffffffffffffffffffffffffffffffffffffffffff8203610f8157610f80610de6565b5b600182019050919050565b7f546869732066696c6520616c7265616479206578697374732120636f7079726960008201527f67687420616c6572742121000000000000000000000000000000000000000000602082015250565b6000610fe8602b83610b52565b9150610ff382610f8c565b604082019050919050565b6000602082019050818103600083015261101781610fdb565b9050919050565b60008190508160005260206000209050919050565b60006020601f8301049050919050565b600082821b905092915050565b6000600883026110807fffffffffffffffffffffffffffffffffffffffffffffffffffffffffffffffff82611043565b61108a8683611043565b95508019841693508086168417925050509392505050565b6000819050919050565b60006110c76110c26110bd84610880565b6110a2565b610880565b9050919050565b6000819050919050565b6110e1836110ac565b6110f56110ed826110ce565b848454611050565b825550505050565b600090565b61110a6110fd565b6111158184846110d8565b505050565b5b818110156111395761112e600082611102565b60018101905061111b565b5050565b601f82111561117e5761114f8161101e565b61115884611033565b81016020851015611167578190505b61117b61117385611033565b83018261111a565b50505b505050565b600082821c905092915050565b60006111a160001984600802611183565b1980831691505092915050565b60006111ba8383611190565b9150826002028217905092915050565b6111d38261091e565b67ffffffffffffffff8111156111ec576111eb610bc8565b5b6111f68254610ee4565b61120182828561113d565b600060209050601f8311600181146112345760008415611222578287015190505b61122c85826111ae565b865550611294565b601f1984166112428661101e565b60005b8281101561126a57848901518255600182019150602085019450602081019050611245565b868310156112875784890151611283601f891682611190565b8355505b6001600288020188555050505b50505050505056fea26469706673582212201b8ab7e38740a193bfe85a708c124767c72ad0d625c28f2a137ce24a6600ca2764736f6c63430008110033",
  "linkReferences": {},
  "deployedLinkReferences": {}
}